:1000000000100020B91200000113000001130000CD
:100010000113000001130000011300000113000090
:100020000113000001130000011300000113000080
:10003000011300009068000001130000210B000074
:100040000113000001130000F10500004D0600003F
:100050000113000001130000011300000113000050
:100060000113000001130000011300000113000040
:1000700001130000011300009D06000001130000A1
:100080000113000001130000011300000113000020
:100090000113000001130000011300000113000010
:1000A0000113000001130000011300000113000000
:1000B00001130000011300000113000001130000F0
:1000C00001130000011300000113000001130000E0
:1000D00001130000011300000113000001130000D0
:1000E00001130000011300000113000001130000C0
:1000F00001130000011300000113000001130000B0
:10010000011300000113000001130000011300009F
:10011000011300000113000001130000011300008F
:10012000011300000113000001130000011300007F
:10013000011300000113000001130000011300006F
:10014000011300000113000001130000C10C0000A6
:1001500010B5054C237833B9044B13B10448AFF301
:1001600000800123237010BD8810002000000000D3
:100170001872000008B5034B1BB103490348AFF3E5
:10018000008008BD000000008C10002018720000E4
:10019000A3F5803A704700BF174B002B08BF134BE5
:1001A0009D46FFF7F5FF00218B460F461348144A82
:1001B000121A06F0EFFA0E4B002B00D098470D4BA9
:1001C000002B00D098470020002104000D000D48AE
:1001D000002802D00C48AFF3008006F0B7FA2000E8
:1001E000290000F0A7FC06F09DFA00BF00000800FF
:1001F0000000000000000000001000208810002017
:10020000EC120020000000000000000082B0034655
:100210008DF807309DF90730002B0CDB9DF8073077
:1002200003F01F0205499DF907305B09012000FA20
:1002300002F241F8232000BF02B0704700E100E065
:1002400082B0034600918DF807309DF90730002BEE
:100250000ADB009BDAB20C499DF907305201D2B299
:100260000B4483F800230BE0009BDAB207499DF8AA
:10027000073003F00F03043B5201D2B20B441A764D
:1002800000BF02B0704700BF00E100E000ED00E0F9
:1002900000B583B00190019B013BB3F1807F01D396
:1002A00001230FE0094A019B013B536007214FF0F6
:1002B000FF30FFF7C5FF054B00229A60034B072272
:1002C0001A600023184603B05DF804FB10E000E05C
:1002D00082B00190019B1A4A934227D0019B194A90
:1002E000934223D0019B184A93421FD0019B174A87
:1002F00093421BD0019B164A934217D0019B154A8B
:10030000934213D0019B144A93420FD0019B134A8E
:1003100093420BD0019B124A934207D0019B114A92
:10032000934203D0019B104A934201D1012300E084
:10033000002303F00103DBB2184602B0704700BF90
:10034000008001400084014000880140008C014091
:1003500000900140009401400098014000A001403D
:1003600000A4014000A8014000AC014000B583B0EA
:1003700001900B468DF803300198FFF7A9FF034663
:10038000002B04D14FF45171084801F099FB9DF8FE
:100390000330002B03D0019B01225A6002E0019B35
:1003A00002225A6000BF03B05DF804FBC067000082
:1003B00082B001900091019B009A5A6100BF02B087
:1003C000704782B001900091019B9A69009B1A438B
:1003D000019B9A6100BF02B0704782B00190019BFF
:1003E000DB68184602B0704784B001900091019B11
:1003F00003F1C0630393039B009A1A6000BF04B02B
:10040000704784B001900091019B03F180630393D6
:10041000039B009A1A6000BF04B0704782B001903D
:10042000034A019BC2F8243400BF02B0704700BFEA
:100430000080084000B583B0034600918DF8073076
:100440009DF80730002B39D09DF80730012B32D0B2
:100450009DF80730022B2BD09DF80730032B24D0BA
:100460009DF80730042B1DD09DF80730052B16D0C2
:100470009DF80730062B0FD09DF80730072B08D0CA
:100480009DF80730082B02D14FF6FF7318E00023C8
:1004900016E04FF6FF7313E04FF6FF7310E04FF6D0
:1004A000FF730DE04FF6FF730AE04FF6FF7307E0AE
:1004B0004FF6FF7304E04FF6FF7301E04FF6FF7352
:1004C000009AD34003F00103002B04D14FF479715B
:1004D0000C4801F0F5FA9DF8072013465B00134421
:1004E0001B010C3303F1804303F508230121009A1B
:1004F00001FA02F211461846FFF783FF00BF03B06E
:100500005DF804FB2868000000B583B00346009145
:100510008DF807309DF80730002B39D09DF8073053
:10052000012B32D09DF80730022B2BD09DF80730DD
:10053000032B24D09DF80730042B1DD09DF80730E5
:10054000052B16D09DF80730062B0FD09DF80730ED
:10055000072B08D09DF80730082B02D14FF6FF7308
:1005600018E0002316E04FF6FF7313E04FF6FF7319
:1005700010E04FF6FF730DE04FF6FF730AE04FF601
:10058000FF7307E04FF6FF7304E04FF6FF7301E0DF
:100590004FF6FF73009AD34003F00103002B04D100
:1005A00040F213410C4801F08BFA9DF807201346E6
:1005B0005B0013441B010C3303F1804303F5082354
:1005C0000121009A01FA02F211461846FFF70CFFCA
:1005D00000BF03B05DF804FB2868000082B0019002
:1005E000024A019B936600BF02B0704700200040A2
:1005F00000B583B00120FFF7F1FF0F210620FFF7C0
:1006000083FF0E4BD3F894300D4A934202D10D4B29
:10061000019301E00A4B01930B4B1B685A1C0A49DA
:100620000A600199184600F005FD0F210620FFF72A
:1006300001FF00BF03B05DF804FB00BF00200040D5
:10064000D4110020D4100020D812002000B583B0AF
:1006500045F25550FFF7E2FE0E210720FFF754FF49
:100660000C4B01221A70002005F05CFA01210A48A7
:10067000FFF7A7FE0E20FFF7C9FD0748FFF7ADFE05
:10068000019001990448FFF793FE00BF03B05DF8A5
:1006900004FB00BFD41200200084014000B583B0E9
:1006A0000F210620FFF730FF1548FFF796FE019057
:1006B00001991348FFF77CFE124B1B681B0203F1E4
:1006C0004042114B1B689A4212D90F4B1B681B8882
:1006D000ADF802300C4B1B6802330B4A1360BDF8B7
:1006E0000230C3F30B031A460021084805F0C0FE90
:1006F0000F210620FFF79EFE00BF03B05DF804FB4C
:1007000000840140D8120020001000200060084042
:1007100000B589B000238DF8103000238DF811301A
:100720001F238DF8123000238DF8133000238DF82D
:10073000143000238DF8153001AB00221A605A6086
:100740009A60FF238DF8093001211E4801F096FEC2
:1007500001211D4801F092FE00211C4801F052F9D0
:1007600003460793079BDBB28DF81330002001F09E
:100770007FF903460693069BDBB28DF812308B237C
:100780008DF8083000238DF80A3002238DF80630EA
:1007900000238DF8073008238DF8053001238DF8EC
:1007A0000B3000238DF8043004AB1946084800F0E4
:1007B000AFFF01AB1946064801F064F800BF09B06D
:1007C0005DF804FB40410500004209000024F400EC
:1007D0000020084000B58FB001214FF4EA4001F03D
:1007E0004DFE514B1B680D930DAB184605F00EF8EE
:1007F0004E4B1A460023136053609360D3604B4BFB
:100800004FF400221A604A4B1A46002313605360CB
:100810009360D360464A13887F2161F30E131380DF
:10082000434A937843F010039370414AD37843F0DE
:100830000303D3703E4AD378022161F38303D3705C
:100840003B4B3C4A5A603C4A394B9A60384A137BCE
:1008500043F001031373364A137B43F0020313730F
:10086000334AD368042161F39F03D360304B1033C4
:1008700000221A605A609A60DA602D4A138A7F213A
:1008800061F30E1313822A4A937C43F0100393748E
:10089000274AD37C43F00303D374254AD37C022137
:1008A00061F38303D374224B224A5A61234A204BBB
:1008B0009A611F4A137F43F0010313771C4A137F89
:1008C00043F0020313771A4AD3696FF0030161F30F
:1008D0009F03D361164AD378012161F38303D37058
:1008E000134AD37C012161F38303D374104A9378B4
:1008F0006FF3030393700E4A937C6FF303039374B7
:100900000B4A937843F010039370094A937C43F0A9
:1009100010039374064A0549002004F0E5FF00BF68
:100920000FB05DF804FB00BF8C680000A41000202D
:10093000B410002048200840D4100020D41100201A
:1009400000B585B00121184801F098FD6B460022E2
:100950001A605A609A601A7301238DF800300023E0
:100960008DF80030104801F041FE03460F4A10494F
:10097000A1FB03139B0BD36101214FF4CA4001F08B
:100980007DFD01224FF47451002005F0F7F86B460D
:100990001946064805F044FB01210448FFF7E6FC30
:1009A00000BF05B05DF804FB0012040000840140A4
:1009B0005172A6BE00B587B00121254801F05EFD49
:1009C00002AB00221A605A609A60DA6001238DF847
:1009D00008306B4600221A601A7101238DF8093025
:1009E000002200211B4805F065FD03460393012307
:1009F0008DF81030184BD3F8B430174A43F0120377
:100A0000C2F8B430144BD3F8B430134A23F00103C6
:100A1000C2F8B430104BD3F8AC300F4A23F07F73D8
:100A200023F44033C2F8AC3002AB19460A4805F053
:100A3000F3FB6B4600221946074805F0B3FC012280
:100A40000021054805F094FB00BF07B05DF804FBEA
:100A5000008E080040420F000060084000B583B0DF
:100A60002C4801F0C3FD03462B4AA2FB03239B093C
:100A70001846FFF70DFC002304220F21062004F086
:100A800087FD012304220D21072004F081FD0123AD
:100A900004220E21072004F07BFD012304220F21F4
:100AA000072004F075FD012303220821022004F031
:100AB0006FFD0320FFF7AAFB01230193002300939E
:100AC000012308220821022004F086FC00F0ECF942
:100AD00000F0ECFA034683F00103DBB2002B04D0F4
:100AE0000D210720FFF7A6FCFAE70621002000F001
:100AF000BFF9FFF75FFF0E210720FFF79BFCFFF711
:100B000007FEFFF767FEFFF71BFF00BF03B05DF8AE
:100B100004FB00BF70000200D34D621000BF70479D
:100B2000034B1B680133024A136000BF704700BFCC
:100B3000DC12002008B505F0DDFDFFF78FFF05F0A2
:100B4000E6FDFFF7EBFFFAE782B003468DF80730CA
:100B50009DF90730002B0CDB9DF8073003F01F02D6
:100B600005499DF907305B09012000FA02F241F8BE
:100B7000232000BF02B0704700E100E084B0019084
:100B80000091019B03F180630393039B009A1A6019
:100B900000BF04B07047000000B583B00346009169
:100BA0008DF807309DF80730002B39D09DF80730BD
:100BB000012B32D09DF80730022B2BD09DF8073047
:100BC000032B24D09DF80730042B1DD09DF807304F
:100BD000052B16D09DF80730062B0FD09DF8073057
:100BE000072B08D09DF80730082B02D14FF6FF7372
:100BF00018E0002316E04FF6FF7313E04FF6FF7383
:100C000010E04FF6FF730DE04FF6FF730AE04FF66A
:100C1000FF7307E04FF6FF7304E04FF6FF7301E048
:100C20004FF6FF73009AD34003F00103002B04D169
:100C30004FF479710C4800F043FF9DF807201346EC
:100C40005B0013441B010C3303F1804303F50823BD
:100C50000121009A01FA02F211461846FFF78EFFB1
:100C600000BF03B05DF804FBD068000082B00190C3
:100C700000BF019B1B68002BFBDA00BF00BF02B066
:100C8000704782B00190019B1B6C184602B0704700
:100C900082B001900091019B009A1A6400BF02B0DB
:100CA0007047000082B001900091009A034B1340FE
:100CB000019A536400BF02B0704700BF0080F8FF84
:100CC00000B583B00748FFF7DCFF019001990548A4
:100CD000FFF7DEFF09210820FFF75EFF00BF03B02A
:100CE0005DF804FB00C4014000B587B001AB0022F1
:100CF0001A605A609A60DA601A6106238DF804302F
:100D000001AB1946034805F04BF800BF07B05DF88A
:100D100004FB00BF00C4014000B587B06B46002251
:100D20001A605A609A60DA601A6105238DF8003003
:100D30000123ADF802300DF1170303936B461946FA
:100D4000044805F02DF89DF81730184607B05DF8F7
:100D500004FB00BF00C4014000B583B0FFF7C4FF2F
:100D6000FFF7DAFF0346019303E0FFF7D5FF0346E1
:100D70000193019B03F00203002BF6D000BF00BFDC
:100D800003B05DF804FB00B583B0FFF7C5FF034671
:100D9000019303E0FFF7C0FF03460193019B03F0BB
:100DA0000103002BF6D100BF00BF03B05DF804FBC8
:100DB00000B583B00190019A13461B039B1A184695
:100DC00000F004F800BF03B05DF804FB00B589B083
:100DD000019003AB00221A605A609A60DA601A61CF
:100DE00020238DF80C3003238DF81030019B0593E0
:100DF000FFF7B2FF03AB1946044804F0D1FFFFF739
:100E0000C2FF00BF09B05DF804FB00BF00C4014091
:100E100000B583B00190019A13461B049B1A184633
:100E200000F004F800BF03B05DF804FB00B589B022
:100E3000019003AB00221A605A609A60DA601A616E
:100E4000D8238DF80C3003238DF81030019B0593C7
:100E5000FFF782FF03AB1946044804F0A1FFFFF738
:100E600092FF00BF09B05DF804FB00BF00C4014061
:100E700000B585B001900091019B039308E00398B1
:100E8000FFF7C6FF0748FFF7F1FE039B013303930B
:100E9000039A009B9A42F2D300BF00BF05B05DF8F1
:100EA00004FB00BF00C4014000B587B001214D48DC
:100EB00001F0E4FA01214C4801F0E0FA4B4B1B88A9
:100EC000ADF8103004238DF8113004AB19464848B2
:100ED00004F0DEFE464B464A1B68136000230422E2
:100EE0000921062004F054FB0023042200210620DF
:100EF00004F04EFB002304220121062004F048FBED
:100F0000002304220221062004F042FB00230422D5
:100F10000321062004F03CFB0023042204210620C8
:100F200004F036FB012304220D21062004F030FBDF
:100F30002F4B0222C3F808212D4B40F2E312C3F8D5
:100F4000042103238DF8083000238DF80930002395
:100F50008DF80A3000238DF80B3000238DF80C300B
:100F600008238DF809306B238DF8083000238DF8A5
:100F70000C3000238DF80A3002238DF80B3002ABC1
:100F800019461B4804F0B0FE1A4A6B4692E803006B
:100F900018600433197000238DF8013038238DF860
:100FA000003002238DF8023002238DF80330012334
:100FB0008DF804306B4619460D4804F0C1FE04213B
:100FC0000B48FFF76FFE4320FFF7BEFD0848FFF711
:100FD00058FE059005990648FFF75AFE00BF07B076
:100FE0005DF804FB00550A0000950A006C690000DA
:100FF00000C401407069000000B585B00190009107
:101000000099019800F016F8094B1B6F039302E05A
:10101000074B1B6F0393039B03F04003002BF7D098
:1010200009210820FFF7B8FD00BF05B05DF804FBFB
:1010300000C4014086B001900091019B1B02039304
:10104000194A039B9367184B4FF48072DA67164B6B
:101050004FF04042DA61144B0822C3F88020124B53
:101060001B6F114A43F0010313674FF04043059390
:101070000023049311E0049B9B00009A13441B6817
:101080000293049B9B00059A1344029A1A60059BE5
:1010900004330593049B01330493049B3F2BEAD94B
:1010A00000BF00BF06B0704700C4014000B5ADF6F8
:1010B0001C0D01238DF817380020FFF779FE00235F
:1010C000CDF8103825E00023CDF80C3812E0DDF81B
:1010D00010389A01DDF80C38D1180DF61803A3F674
:1010E0001803DDF80C2843F82210DDF80C38013322
:1010F000CDF80C38DDF80C383F2BE8D96B46194693
:10110000DDF81008FFF778FFDDF810380133CDF86F
:101110001038DDF810381F2BD5D94FF04043CDF8EB
:1011200004380023CDF8083816E0DDF808389B00B5
:10113000DDF8042813441B68CDF80038DDF80028DA
:10114000DDF808389A4202D000238DF81738DDF810
:1011500008380133CDF80838DDF80838B3F5007FDA
:10116000E3D30020FFF724FE9DF81738002B14BFAF
:1011700001230023DBB218460DF61C0D5DF804FBBD
:1011800000BF704708B50421112002F0A7FA012121
:101190000A4801F073F90221094802F09FFA02217E
:1011A000084802F09BFA0221074802F097FA022150
:1011B000064802F093FA0023184608BD30053E00A9
:1011C00002001E000300200004002200050024008D
:1011D0004FF0804301225A64164BD3F8B030154AC1
:1011E00043F00103C2F8B030124BD3F8E030114A9B
:1011F00043F00803C2F8E0300F4B1B680E4A43F47B
:10120000805313600B4BD3F8E0300A4A23F00803F5
:10121000C2F8E030074BD3F8B030064A23F00103A0
:10122000C2F8B030054B1B68044A43F4F84313601E
:1012300000BF704700400E4034400540A4310E40CE
:1012400008B5FFF7C5FF05F039FA00F02BF805F0F7
:1012500075F905F0A7F905F0EDF9FFF793FF05F033
:101260007FF900F013F800BF08BD00BF704700BF52
:10127000704700BF704700BF704700BF704700BF96
:10128000704700BF704700BF7047000008B50121DC
:10129000034801F0F3F8FFF773FF00BF08BD00BF7C
:1012A00000550A0008B50121024801F0E7F800BF27
:1012B00008BD00BF00550A0000B585B000F0D8F8A1
:1012C0000C4B03930C4B02930B4B01930B4B009372
:1012D0000AE0039A131D0393029B191D02911268E1
:1012E0001A60019B04330193019A009B9A42F0D348
:1012F000FEF752FF2072000000100020881000202E
:10130000FEE7000000B583B000F020F801900A4B22
:10131000D3F808311B0AC3F308030093009B013381
:10132000019AB2FBF3F30193044A019B1360019B02
:10133000184603B05DF804FB00400E400C1000207E
:10134000014B1846704700BF00A24A0482B0314BDF
:10135000D3F8943003F00703023B042B49D801A2D1
:1013600052F823F089130000811300007913000064
:10137000E913000091130000274B1B6801933CE028
:101380004FF40043019338E0244B1B68019334E091
:10139000204B9B681B0C03F01F03073B072B1FD838
:1013A00001A252F823F000BFC9130000E1130000AE
:1013B000E1130000E1130000CF130000E11300006F
:1013C000D5130000DB130000154B01930BE0154B08
:1013D000019308E0144B019305E0144B019302E0E4
:1013E0000023019300BF08E0114B1B685B080193C9
:1013F00003E00F4B1B68019300BF064BD3F800318D
:101400001B0A03F01F030133019AB2FBF3F31846E2
:1014100002B0704700400E40081000200410002069
:101420000024F4000048E801006CDC0280F0FA02BD
:1014300010100020014B1B68184670470410002054
:1014400000B583B00190084A019B1360074BD3F8A5
:10145000943003F00703022B01D1FFF753FF00BFC5
:1014600003B05DF804FB00BF0410002000400E40F4
:10147000064B074A9A60054BD3F88830034A43F479
:101480007003C2F8883000BF704700BF00ED00E075
:10149000000000004FF40043184670474FF47A7381
:1014A00018467047014B1B6818467047081000200B
:1014B00000B587B0039002910192029B1F2B03D9C4
:1014C00091210A4800F0FCFA039B03F1424303F523
:1014D0008013DA00029B13449B000593059B019A3D
:1014E0001A6000BF07B05DF804FB00BF7C69000014
:1014F00000B587B003900291019202F0E3FE0590DF
:10150000039B1A68029BDB431A400199029B0B4024
:101510001A43039B1A60059802F0E0FE00BF07B073
:101520005DF804FB88B001900B468DF8033013463C
:101530008DF802309DF80230002B04D01023059363
:101540006D4B069303E0002305936C4B0693019BC0
:101550005B6B069A1340039300230793019B684A31
:10156000934202D1674B049306E0019B664A934283
:1015700040F0BE80654B04939DF80330062B17DCCA
:10158000002BC0F2AA80062B00F2A78001A252F81D
:1015900023F000BFB7150000E31500001916000086
:1015A0004B160000DB160000DB160000871600005B
:1015B000812B79D091E0049B1B6803F4FE43079ACA
:1015C00013430793049B1B6803F00F03079A13430D
:1015D0000793049B1B6803F0F003079A13430793D8
:1015E0007EE0049B1B681B0E1B0203F4FE43079A5C
:1015F00013430793049B1B681B0C03F00F03079A0C
:1016000013430793049B1B681B0D1B0103F0F0039E
:10161000079A1343079363E0049B04331B6803F4A6
:10162000FE43079A13430793049B04331B6803F09C
:101630000F03079A13430793049B04331B6803F0BB
:10164000F003079A134307934AE0049B04331B6893
:101650001B0E1B0203F4FE43079A13430793049BDC
:1016600004331B681B0C03F00F03079A1343079303
:10167000049B04331B681B0D1B0103F0F003079A46
:10168000134307932CE0049B08331B6803F00F03FC
:10169000079A13430793049B08331B6803F0F00376
:1016A000079A134307931BE0049B04331B6803F45E
:1016B000FE43079A13430793049B04331B6803F00C
:1016C0000F03079A13430793049B04331B6803F02B
:1016D000F003079A1343079302E00023079300BF28
:1016E000079A059B9A40039B1A43019B5A6300E0AB
:1016F00000BF08B0704700BFFFFF00800080FFFF01
:10170000002008401082E00F002408402082E00FF3
:1017100000B589B001900091009BDB788DF81B30FB
:10172000019B504A934208D0019B4F4A934204D0F8
:101730004FF4BD714D4800F0C3F99DF81B30002BEC
:1017400007D100214A4800F05DF903468DF81B30AF
:1017500024E0019B1B6803F08003002B1ED10021B5
:10176000434800F04FF903461A469DF81B30934258
:1017700004D240F285113D4800F0A2F900214FF457
:10178000FA4000F03FF903461A469DF81B30934299
:1017900004D94FF4C371354800F092F9019B0A2235
:1017A0009A60009B1B781A06009B9B781B0403F42D
:1017B000FE031A439DF81B301B0203F4FE43134340
:1017C000009A527813430793009B1B79002B03D098
:1017D000079B43F010030793019B079A1A60019837
:1017E000009B5B791A46C021FFF782FE019B1B68B4
:1017F00003F08003802B31D11E4B0593002304930B
:10180000019B194A934201D11B4B0593059800F0A7
:10181000EDFE0390019B134A934204D1174800F058
:10182000E5FE04900DE0019B0F4A934204D1144859
:1018300000F0DCFE049004E04FF4DB710B4800F094
:101840003FF9039A13465B0013445B08049A9A42DB
:1018500004D24FF4DC71054800F032F900BF09B042
:101860005DF804FB0020084000240840E069000007
:101870000024F400B8003200B9003400004209002E
:101880000052090000B585B001900091019B5A4AB1
:10189000934208D0019B594A934204D04FF45471AB
:1018A000574800F00DF9019B02229A60009B9B783B
:1018B000002219460198FFF735FE009B5B781A0657
:1018C000009B1B791B021A43009B5B791B041A4384
:1018D000009BDB78DB0013430393009BDB79002B39
:1018E00003D0039B43F000530393009B1B7A002B10
:1018F00003D0039B43F004030393009B9B79002BCD
:1019000003D0039B43F002030393009B5B7A002BFD
:1019100003D0039B43F001030393009B1B79F32B3C
:101920000DD1009B9B78002B09D1009B5B78032B8A
:1019300005D8039B23F0706343F080630393009BFF
:101940009B785BB2002B04DA039B43F0E003039324
:1019500005E0009B9B785B01039A13430393019B73
:10196000039A1A61019B5B6923F4791323F007033F
:101970000393009B9B785BB2002B06DA009B9B785D
:1019800023F08003039A13430393009B1B785B04AB
:10199000039A13430393009BDB7A002B03D0039B32
:1019A00043F480430393019B039A5A610198009B7F
:1019B0009B7A1A460221FFF77BFD019BDB6F0393A5
:1019C000019BD3F88020039B1340002B04D04FF4DD
:1019D0006E710B4800F074F8019BDB6803F4406300
:1019E000002B04D040F2B931054800F069F800BF7F
:1019F00005B05DF804FB00BF00200840002408404B
:101A0000E069000000B585B001900091019B164A85
:101A1000934202D9144B019306E0019BB3F5FA4FB0
:101A200002D24FF4FA430193009B002B03D10F48DD
:101A300000F0DCFD0090009A019B13445A1E019BAC
:101A4000B2FBF3F30393039B002B02D0039B013BF8
:101A50000393039B7F2B01D97F230393039BDBB26B
:101A6000184605B05DF804FB0024F400604109004D
:101A700000B583B00190019B002B08D10E4800F007
:101A8000B5FD0190019B002B01D101230193019B26
:101A900003F5742303F23F230193019B074AA2FB42
:101AA00003239B0C0193019BDBB2013BDBB2184685
:101AB00003B05DF804FB00BF6041090083DE1B43F7
:101AC00082B001900091FEE700B583B00190019BC8
:101AD0001F2B04D940F22F110548FFF7F1FF012217
:101AE000019B02FA03F3184603B05DF804FB00BF44
:101AF000446A000000B587B0039002910192029BF6
:101B00001F2B03D991210A48FFF7DAFF039B03F14A
:101B1000424303F58013DA00029B13449B000593B4
:101B2000059B019A1A6000BF07B05DF804FB00BF77
:101B3000AC6A000084B001900091019B03F1424324
:101B400003F58013DA00009B13449B000393039B6F
:101B50001B68184604B0704784B001900091019B47
:101B600003F1C0630393039B009A1A6000BF04B0A3
:101B7000704784B001900091019B03F1806303934F
:101B8000039B009A1A6000BF04B0704700B585B08F
:101B90000190019B002B03D0019BB3F5004F04D9AA
:101BA00040F635410748FFF78BFF019BB3FA83F3FB
:101BB000DBB2C3F11F030393039B184605B05DF826
:101BC00004FB00BF106B000000B585B00190019BC5
:101BD000B3F5004F04D340F622510E48FFF770FFD3
:101BE000019B0133B3FA83F3DBB2C3F11F03039309
:101BF0000398FFF769FF0346013B019A9A4204D01C
:101C000040F628510348FFF75BFF039B184605B0D9
:101C10005DF804FB106B0000054B1B6803F04003EC
:101C2000002B01D1012300E000231846704700BFBC
:101C30003C300E4008B5FFF7EFFF034683F0010389
:101C4000DBB2002B08D100BF12210448FFF772FF5E
:101C50000346002BF8D100E000BF08BD04300E4061
:101C600008B5FFF7E7FF044B5B681B0C03F00303A9
:101C7000DBB2184608BD00BF00300E4000B585B08D
:101C8000019001230393019B124A934204D800233D
:101C900003930023029308E0019B0F4A934202D86A
:101CA0000123029301E002230293039A10210B48BF
:101CB000FFF720FF094BD3F8003123F04072029B5D
:101CC0001B0606491343C1F8003100BF05B05DF89B
:101CD00004FB00BF0048E8010090D00300400E4024
:101CE00082B0034B1B680193019B184602B07047FA
:101CF0001410002000B583B0FFF728FB0190074BBC
:101D0000D3F800311B0A03F01F030133019A02FBD1
:101D100003F3184603B05DF804FB00BF00400E401B
:101D200000B583B0104801F0F9FA03468DF803308E
:101D30009DF80330072B05D0092B07D1FFF706FBD1
:101D400001900BE0FFF7CCFF019007E00023019327
:101D500041F2FC210548FFF7B3FE00BF019B184686
:101D600003B05DF804FB00BF06000E00746B0000BA
:101D700000B585B00190019B002B03D0019B012B86
:101D800007D00DE0244801F0C9FA03468DF80B3066
:101D90000DE0224801F0C2FA03468DF80B3006E050
:101DA00041F21C311E48FFF78BFE002330E09DF806
:101DB0000B30013B072B22D801A252F823F000BFC1
:101DC000E11D0000FF1D0000FF1D0000EF1D0000D1
:101DD000FF1D0000FF1D0000E71D0000F71D0000B3
:101DE0000023039313E0FFF77BFF03900FE0FFF75F
:101DF00021FB03900BE0FFF77DFF039007E000233A
:101E0000039341F233310648FFF75AFE00BF039BAC
:101E1000184605B05DF804FBB8003200B900340084
:101E2000746B000000B583B01C4801F077FA0346DC
:101E30008DF803309DF80330043B062B20D801A217
:101E400052F823F0691E0000611E0000811E000090
:101E5000711E0000811E0000811E0000791E00001E
:101E60000F4B1B68019313E0FFF7E4FA01900FE0BA
:101E7000FFF736FF01900BE00A4B1B68019307E068
:101E80000023019341F25D310748FFF719FE00BFBF
:101E9000019B184603B05DF804FB00BF0A7B3600C7
:101EA0001010002018100020746B000000B585B0E1
:101EB0000190019B002B1DD1204801F02FFA034611
:101EC0008DF80B3000BF9DF80B30043B062B28D853
:101ED00001A252F823F000BF0B1F0000031F0000F7
:101EE000231F0000131F0000231F0000231F0000FA
:101EF0001B1F000041F278311148FFF7E1FD00237C
:101F000018E0104B1B68039313E0FFF793FA03905C
:101F10000FE0FFF7E5FE03900BE00B4B1B6803930C
:101F200007E00023039341F28F310548FFF7C8FD16
:101F300000BF039B184605B05DF804FB0B7C38001E
:101F4000746B0000101000201810002000B583B042
:101F5000244801F0E3F903468DF803309DF803307F
:101F6000023B092B30D801A252F823F0B91F000020
:101F7000C11F00009D1F0000B11F0000C91F00000D
:101F8000C91F0000C91F0000C91F0000951F0000E5
:101F9000A51F0000144B1B6801931DE0FFF74AFAD0
:101FA000019019E0FFF746FA03465B00019313E046
:101FB0000E4B1B6801930FE0FFF774FA01900BE0E2
:101FC000FFF768FA019007E00023019341F2E63140
:101FD0000748FFF775FD00BF019B184603B05DF889
:101FE00004FB00BF0C7F3A001810002010100020E6
:101FF000746B000000B585B0019000914FF08043F4
:102000005B6803F0407303930023029312E01D4AC0
:10201000029BDB0013441A79009BDBB29A4206D183
:10202000184A029B52F83330019A9A4206D9029B11
:1020300001330293029B062BE9D900E000BF029B0B
:10204000072B07D10323039341F23A410E48FFF7D0
:1020500037FD05E00B4A029BDB0013445B790393D9
:10206000039B1B0603934FF080435B6823F0407291
:102070004FF08041039B13434B6000BF05B05DF8F8
:1020800004FB00BFD86B0000746B000000B583B088
:102090004FF080431B6C002B14BF012300238DF8ED
:1020A00007304FF0804341F671321A64FFF748F968
:1020B000034600211846FFF79DFF9DF80730002BCF
:1020C00003D04FF0804300221A6400BF03B05DF8D4
:1020D00004FB000000B585B0019000910B4B039309
:1020E000009B022B01D10A4B0393019A039B9A4256
:1020F00004D908490848FFF72FFD03E005490648C1
:10210000FFF737FD00BF05B05DF804FB80D5430243
:102110000024F400020202000001004000B583B078
:1021200001900091019B0C4A934209D9009B002B1E
:1021300006D14FF480514FF08040FFF70DFD06E0CF
:102140004FF480514FF08040FFF713FD00BF00BFF8
:1021500003B05DF804FB00BF80F0FA0200B585B063
:10216000019000914FF080431B6C002B14BF0123A2
:1021700000238DF80F304FF0804341F671321A641E
:1021800000990198FFF736FF00990198FFF7A2FF29
:1021900000990198FFF7C2FF9DF80F30002B03D084
:1021A0004FF0804300221A6400BF05B05DF804FBC5
:1021B000034B5B6A1B0903F003031846704700BF1B
:1021C00000400E4082B00190054B5B6A23F0300264
:1021D000019B1B01024913434B6200BF02B07047D1
:1021E00000400E4010B584B0019000230293019B83
:1021F0004D4A934219D0019B4B4A93420FD8019B01
:102200004A4A934211D0019B484A934207D8019B06
:10221000474A934209D0019B464A934205D041F276
:102220003A514548FFF74CFC00E000BF019801F02F
:1022300075F803460393019B3B4A934229D0019BC7
:10224000394A93422CD8019B384A93421AD0019BB9
:10225000364A934224D8019B354A934204D0019BCD
:10226000344A934207D01BE0344BD3F8803003F05C
:10227000070303931AE0314BD3F8843003F00703CC
:10228000039313E02D4BD3F88C3003F00703039333
:102290000CE02A4BD3F8883003F00703039305E0E2
:1022A00041F269512448FFF70BFC00BF039B042B4C
:1022B0002DD801A252F823F009230000CD220000FE
:1022C000D5220000E5220000DD220000FFF7E2F841
:1022D000029024E0FFF7E6F8029020E0FFF7DEF836
:1022E00002901CE0FFF732F80446144BD3F800319B
:1022F0001B0E03F0030301331846FFF7E5FB03460B
:10230000B4FBF3F302930AE00023029307E00023F7
:10231000029341F2BB510848FFF7D2FB00BF029B7A
:10232000184604B010BD00BF0500240004002200C0
:1023300002001E0003002000746B000000400E40ED
:1023400082B00190094BD3F8443103F00103002B14
:1023500008D100BF054BD3F84021019B1340002B4F
:10236000F8D100E000BF02B0704700BF00400E404F
:1023700008B50321064800F001FD0321054800F0DF
:10238000FDFC0321044800F0F9FC00BF08BD00BFBC
:1023900040410500504107006041090000B583B08D
:1023A000FEF7D4FF0090FFF75BFC0346022B1AD127
:1023B000009A234B1344234AA2FB0323DB0D019312
:1023C000019B002B02D0019B013B019301991E4808
:1023D00000F0D4FC01991D4800F0D0FC01991C4884
:1023E00000F0CCFC27E0009A1A4B13441A4AA2FBD7
:1023F00003231B0E0193019B002B02D0019B013B89
:1024000001930199104800F0B9FC0199104800F0BF
:10241000B5FC009A114B1344114AA2FB03239B0EF7
:102420000193019B002B02D0019B013B0193019979
:10243000064800F0A3FC00BF03B05DF804FB00BF3A
:10244000FF2C31016BCA5F6B404105005041070012
:10245000604109007FF0FA02893BE655FFA14A047A
:10246000B5FA9BEE00B583B00190019800F0FCFA3C
:1024700003460133184603B05DF804FB00B587B08E
:1024800001900B468DF8033000230493019B1B0A37
:1024900003F00F03013B0E2B72D801A252F823F078
:1024A000DD240000E92400008125000081250000D2
:1024B000E3240000F5240000FF24000009250000AB
:1024C000152500007B250000212500004B2500007C
:1024D00081250000EF24000075250000364B059390
:1024E00054E0364B059351E0354B05934EE0354BA8
:1024F00005934BE0344B05930123049346E0334BA3
:1025000005931023049341E0314B05934FF48073FE
:1025100004933BE02F4B05934FF48033049335E055
:102520002D4B05939DF80330002B14BF012300238E
:10253000DBB283F00103DBB28DF803309DF803308A
:1025400003F001038DF8033020E0244B05939DF840
:102550000330002B14BF01230023DBB283F00103FF
:10256000DBB28DF803309DF8033003F001038DF8E2
:1025700003300BE01A4B059308E01A4B059305E076
:1025800041F6D7111848FFF79BFA11E0019B1B0B8E
:1025900003F01F030393049B002B02D00498FFF762
:1025A000CFFE9DF803301A4603990598FFF7A2FA6B
:1025B00007B05DF804FB00BF00400E40B0400E4085
:1025C000C0400E40C4400E40E0400E40E8400E4087
:1025D000EC400E40F0400E4060410E4064410E4021
:1025E000F0410E4050410E40746B000010B584B0B5
:1025F0000190019B03F47813B3F5781F00F010826B
:10260000B3F5781F00F21782B3F5681F00F004825B
:10261000B3F5681F00F20F82B3F5601F00F0F78179
:10262000B3F5601F00F20782B3F5581F00F0EB818D
:10263000B3F5581F00F2FF81B3F5501F00F0D381AE
:10264000B3F5501F00F2F781B3F5481F00F0BC81CD
:10265000B3F5481F00F2EF81B3F5401F00F08E8103
:10266000B3F5401F00F2E781B3F5381F00F04D814C
:10267000B3F5381F00F2DF81B3F5281F00F0328177
:10268000B3F5281F00F2D781B3F5201F00F08A812F
:10269000B3F5201F00F2CF81B3F5101F00F0878142
:1026A000B3F5101F00F2C781B3F5001F00F03C81A5
:1026B000B3F5001F00F2BF81B3F5F01F00F0CB802F
:1026C000B3F5F01F00F2B781B3F5E01F00F04381CE
:1026D000B3F5E01F00F2AF81B3F5D01F00F0298100
:1026E000B3F5D01F00F2A781B3F5C01F00F0E7805B
:1026F000B3F5C01F00F29F81B3F5B01F00F0CD808D
:10270000B3F5B01F00F29781B3F5A01F00F0B780BA
:10271000B3F5A01F00F28F81B3F5901F00F0A080E9
:10272000B3F5901F00F28781B3F5801F00F0488158
:10273000B3F5801F00F27F81B3F5602F00F03C817C
:10274000B3F5602F00F27781B3F5402F74D0B3F565
:10275000402F00F27081B3F5202F4FD0B3F5202F1A
:1027600000F26981B3F5002F39D0B3F5002F00F2E4
:102770006281B3F5C02F23D0B3F5C02F00F25B8187
:10278000B3F5802F0DD0B3F5802F00F25481002BCC
:1027900003D0B3F5003F40D04DE1FEF7D7FD0390E5
:1027A00051E1FEF7D3FD0390A94BD3F80C311B0A7E
:1027B000C3F308030133039AB2FBF3F3039342E13B
:1027C000FEF7C4FD0390A24BD3F818311B0AC3F3E4
:1027D00008030133039AB2FBF3F3039333E1FEF7EB
:1027E000B5FD03909A4BD3F81C311B0AC3F30803C1
:1027F0000133039AB2FBF3F3039324E1FEF7A6FD42
:102800000390934BD3F804311B0AC3F3080301333D
:10281000039AB2FBF3F3039315E1FEF797FD0390E0
:102820008B4BD3F808311B0AC3F308030133039A17
:10283000B2FBF3F3039306E1FEF788FD0390844BAC
:10284000D3F814311B0A03F01F030133039AB2FBC0
:10285000F3F30393F7E07F48FFF7C4FC0390F2E043
:102860007C48FFF7BFFC0390794BD3F820311B0C59
:1028700003F00F03039A22FA03F30393E3E076488D
:10288000FFF7B0FC0390724BD3F8303103F0030331
:10289000039A22FA03F30393D5E06E48FFF7A2FCF4
:1028A00003906B4BD3F8203103F00F031846FFF76A
:1028B0000BF90246039BB3FBF2F30393C3E06548B5
:1028C000FFF790FC0390624BD3F820311B0903F013
:1028D0000F031846FFF7F8F80246039BB3FBF2F329
:1028E0000393B0E05B48FFF77DFC0390584BD3F8AF
:1028F00020311B0B03F007031846FFF7E5F80246EB
:10290000039BB3FBF2F303939DE05248FFF76AFC8D
:1029100003904F4BD3F820311B0A03F00303039AB3
:1029200022FA03F303938EE04C48FFF75BFC03901D
:1029300089E04A48FFF756FC0390454BD3F828310D
:1029400003F003031846FFF7BFF80246039BB3FBEF
:10295000F2F3039377E04148FFF744FC03903C4BCC
:10296000D3F828311B0903F003031846FFF7ACF82E
:102970000246039BB3FBF2F3039364E03748FFF78F
:1029800031FC0390324BD3F828311B0B03F00303C7
:1029900004331846FFF798F80246039BB3FBF2F3A3
:1029A000039350E02E48FFF71DFC03904BE02A48AC
:1029B000FFF718FC039046E0FFF7B2F9039042E0FE
:1029C000FFF78EF903903EE00020FFF7D1F9039066
:1029D0001F4BD3F85C3103F003030133039AB2FBBE
:1029E000F3F303932FE00120FFF7C2F90390184B94
:1029F000D3F85C311B0C03F003030133039AB2FBE1
:102A0000F3F303931FE0FFF70DFA03901BE00020A0
:102A1000FFF74CFA039016E0FFF798FA039012E0E4
:102A2000FEF794FC04460198FFF71CFD0346B4FB37
:102A3000F3F3039307E00023039341F607310948BA
:102A4000FFF73EF800BF039B184604B010BD00BF5F
:102A500000400E4002001E0005002400030020007C
:102A600004002200746B000000B585B00190019B4A
:102A70001B0903F00F030293029B013B0B2B00F297
:102A8000538101A252F823F0B92A0000C92A00009C
:102A9000D92A0000F92A0000092B0000192B000098
:102AA000292B0000392B0000252C0000AF2C000042
:102AB000D72C0000192D0000A24BD3F800311B0ABF
:102AC00003F01F03039337E19E4BD3F814311B0A25
:102AD00003F01F0303932FE19A4BD3F800311B0E31
:102AE00003F003030393039B01331846FEF7ECFF47
:102AF0000346013B03931FE1924BD3F80C311B0AB1
:102B0000C3F30803039317E18E4BD3F818311B0A64
:102B1000C3F3080303930FE18A4BD3F81C311B0A5C
:102B2000C3F30803039307E1864BD3F808311B0A6C
:102B3000C3F308030393FFE0019B834A934230D021
:102B4000019B814A934264D8019B804A934244D0BE
:102B5000019B7E4A93425CD8019B7D4A93423CD0C4
:102B6000019B7B4A934254D8019B7A4A934226D0D8
:102B7000019B784A93424CD8019B774A93423AD0C2
:102B8000019B764A934244D16E4BD3F8203103F037
:102B90000F0303930398FEF797FF0346013B03934C
:102BA0003FE0684BD3F820311B0A03F00303039383
:102BB0000398FEF789FF0346013B039331E0614B25
:102BC000D3F820311B0903F00F0303930398FEF79A
:102BD0007BFF0346013B039323E05A4BD3F820319C
:102BE0001B0B03F0070303930398FEF76DFF0346E7
:102BF000013B039315E0534BD3F820311B0C03F03A
:102C00000F0303930398FEF75FFF0346013B039313
:102C100007E00023039341F67B315148FEF750FF54
:102C200000BF89E0019B4F4A934227D0019B4D4A48
:102C3000934233D8019B4C4A934204D0019B4B4AA8
:102C400093420DD02AE03F4BD3F8283103F0030321
:102C500003930398FEF738FF0346013B039325E0F7
:102C6000384BD3F828311B0903F00303039303986F
:102C7000FEF72AFF0346013B039317E0314BD3F8DD
:102C800028311B0B03F003030393039B0433184603
:102C9000FEF71AFF0346013B039307E0002303936B
:102CA00041F69F312E48FEF70BFF00BF44E0019B29
:102CB0002F4A934206D1234BD3F8303103F003035C
:102CC000039307E00023039341F6AE312448FEF757
:102CD000F7FE00BF30E0019B264A934204D0019BDF
:102CE000254A934207D00EE0164BD3F85C3103F02F
:102CF000030303930FE0134BD3F85C311B0C03F079
:102D00000303039307E00023039341F6C6311448FD
:102D1000FEF7D6FE00BF0FE00A4BD3F804311B0AC2
:102D2000C3F30803039307E00023039341F6D33171
:102D30000B48FEF7C5FE00BF039B184605B05DF8C3
:102D400004FB00BF00400E4080262E0000362C0001
:102D500080002A00801618008046120080061600A7
:102D6000746B00009037300090071A0090171C0019
:102D7000A0091400B8003200B900340000B585B0D5
:102D800001900091019B1B0903F00F030393039B28
:102D9000013B0B2B00F2A78201A252F823F000BFE7
:102DA000D12D00002B2E0000532E0000732E0000AA
:102DB000A12E0000CF2E0000FD2E0000432F0000AA
:102DC0002D310000073200004B320000B932000004
:102DD000009B1F2B04D941F6FB31AB48FEF770FE78
:102DE000FFF754F9A948FEF749FFFFF7C1FAA84BCE
:102DF000D3F8003123F4F852009B1B02A44913437B
:102E0000C1F80031FEF77EFA0290FEF729FF034673
:102E100019460298FFF7A2F9FEF798FA03461846FA
:102E2000FEF72CFFFFF7BAFA63E2009B1F2B04D9D1
:102E300041F611419448FEF743FE954BD3F8143107
:102E400023F4F852009B1B0291491343C1F814313B
:102E50004FE20098FEF79AFE00908D4BD3F80031B8
:102E600023F04072009B1B0689491343C1F80031CF
:102E70003FE2009BB3F5007F04D341F61E41824838
:102E8000FEF71EFE824BD3F80C3123F4FF3323F4FC
:102E90008073009A12027E491343C1F80C3128E274
:102EA000009BB3F5007F04D341F625417648FEF739
:102EB00007FE774BD3F8183123F4FF3323F48073E4
:102EC000009A120272491343C1F8183111E2009BB3
:102ED000B3F5007F04D341F62D416B48FEF7F0FDBA
:102EE0006B4BD3F81C3123F4FF3323F48073009A27
:102EF000120267491343C1F81C31FAE1009BB3F594
:102F0000007F04D341F634415F48FEF7D9FDFFF757
:102F1000BDF85F4BD3F8083123F4FF3323F48073FB
:102F2000009A12025A491343C1F80831FEF7EAF930
:102F30000290FEF795FE034619460298FFF70EF938
:102F4000D7E1019B534A934200F0B280019B514A62
:102F5000934200F2E480019B4F4A934200F0C38009
:102F6000019B4D4A934200F2DA80019B4B4A934207
:102F700000F0B980019B494A934200F2D080019B46
:102F8000474A934264D0019B454A934200F2C7806E
:102F9000019B444A934240D0019B424A934200F233
:102FA000BE80019B404A934204D0019B3F4A93421A
:102FB0001CD0B4E0009BB3F5004F04D941F6464164
:102FC0003148FEF77DFD0098FEF7FEFD00900420DD
:102FD000FFF7B6F92E4BD3F8203123F47022009B73
:102FE0001B042B491343C1F820319EE0009B022BA8
:102FF00004D941F657412448FEF762FD4FF4802082
:10300000FFF79EF9224BD3F8303123F00302204919
:10301000009B1343C1F8303187E0009BB3F5004FAC
:1030200004D941F674411848FEF74AFD0098FEF7AE
:10303000CBFD00900420FFF783F9154BD3F8203126
:1030400023F00F021249009B1343C1F820316CE0BA
:10305000009BB3F5004F04D941F683410A48FEF7BF
:103060002FFD0098FEF7B0FD00900420FFF768F9EF
:10307000074BD3F8203123F0F002009B1B010449D9
:103080001343C1F8203150E0746B00000148E8019F
:1030900000400E4080262E0000362C0080002A00C2
:1030A000801618008006160080461200A009140041
:1030B000009B082B04D941F692419048FEF700FD91
:1030C0000098FEF781FD00900420FFF739F98C4B42
:1030D000D3F8203123F44072009B1B02884913432C
:1030E000C1F8203121E0009BB3F5004F04D941F62F
:1030F000A2418248FEF7E4FC0098FEF765FD0090CF
:103100000420FFF71DF97E4BD3F8203123F4E04271
:10311000009B1B037A491343C1F8203105E041F6B7
:10312000B0417648FEF7CCFC00BFE2E0019B754A57
:10313000934241D0019B734A93425DD8019B724AEE
:10314000934204D0019B714A93421AD054E0009BF1
:10315000082B04D941F6B9416848FEF7B1FC009844
:10316000FEF732FD00904020FFF7EAF8644BD3F8F9
:10317000283123F003026249009B1343C1F8283130
:1031800040E0009B082B04D941F6C8415B48FEF79C
:1031900097FC0098FEF718FD00904020FFF7D0F84C
:1031A000574BD3F8283123F03002009B1B015449C0
:1031B0001343C1F8283125E0009B7F2B02D8009BE8
:1031C0000E2B04D841F6D7414C48FEF779FC009805
:1031D000FEF7FAFC0346043B00934020FFF7B0F8EB
:1031E000474BD3F8283123F44052009B1B0344493A
:1031F0001343C1F8283105E041F6E6413F48FEF7A8
:103200005FFC00BF75E0019B414A934216D1009BD1
:10321000022B04D941F6F0413848FEF751FC4FF437
:103220008020FFF78DF8364BD3F8303123F00302BE
:103230003349009B1343C1F8303105E04FF4E851A6
:103240002E48FEF73DFC00BF53E0019B314A9342FC
:1032500004D0019B304A934213D026E0009B032BFD
:1032600004D941F60B512548FEF72AFC244BD3F82C
:103270005C3123F003022249009B1343C1F85C3107
:1032800019E0009B032B04D941F613511B48FEF7AC
:1032900017FC1B4BD3F85C3123F44032009B1B041A
:1032A00017491343C1F85C3105E041F61951134841
:1032B000FEF706FC00BF1CE0009BB3F5007F04D3C3
:1032C00041F621510D48FEF7FBFB0D4BD3F80431BD
:1032D00023F4FF3323F48073009A12020849134346
:1032E000C1F8043105E041F628510448FEF7E8FB37
:1032F00000BF00BF05B05DF804FB00BF746B0000A9
:1033000000400E409037300090071A0090171C00C4
:10331000A0091400B8003200B900340000B585B02F
:10332000019001238DF80F30019B03F00F030293EE
:10333000029B013B0B2B00F2B68101A252F823F055
:1033400071330000DB33000019340000A9340000A1
:103350006B340000E7340000A73600001135000090
:103360005F350000B3350000FB3500004936000032
:10337000B44BD3F8943003F00703023B052B27D856
:1033800001A252F823F000BFB1330000A9330000BE
:10339000A1330000B9330000C9330000C13300007D
:1033A00002238DF80F3017E003238DF80F3013E060
:1033B00004238DF80F300FE00D238DF80F300BE054
:1033C0000E238DF80F3007E00A238DF80F3003E04D
:1033D00005238DF80F3000BF75E19A4BD3F880308C
:1033E00003F00703042B0ED0042B10D8012B02D0BE
:1033F000022B04D00BE003238DF80F300BE00223E7
:103400008DF80F3007E00C238DF80F3003E0012317
:103410008DF80F3000BF56E18A4BD3F8843003F0AB
:103420000703013B032B1BD801A252F823F000BF76
:103430004134000049340000593400005134000088
:1034400003238DF80F300FE002238DF80F300BE0CF
:103450000C238DF80F3007E006238DF80F3003E0C2
:1034600001238DF80F3000BF2DE1764BD3F8883063
:1034700003F00703042B0ED0042B10D8012B02D02D
:10348000022B04D00BE003238DF80F300BE0022356
:103490008DF80F3007E00C238DF80F3003E0012387
:1034A0008DF80F3000BF0EE1664BD3F88C3003F07F
:1034B0000703042B0ED0042B10D8012B02D0022BB3
:1034C00004D00BE003238DF80F300BE002238DF8BE
:1034D0000F3007E00C238DF80F3003E001238DF847
:1034E0000F3000BFEFE0574B1B6F03F00303002BBF
:1034F00005D0012B07D109238DF80F3007E00723F2
:103500008DF80F3003E001238DF80F3000BFDAE0B3
:103510004C4BD3F85C3103F03003302B16D0302BFA
:1035200018D8202B0ED0202B14D8002B02D0102B13
:1035300004D00FE001238DF80F300FE007238DF842
:103540000F300BE004238DF80F3007E008238DF8CF
:103550000F3003E001238DF80F3000BFB3E0394B8B
:10356000D3F85C3103F44013B3F5401F1CD0B3F51E
:10357000401F00F2A180B3F5001F11D0B3F5001F6A
:1035800000F29A80002B03D0B3F5801F04D093E0A3
:1035900001238DF80F300BE007238DF80F3007E083
:1035A00004238DF80F3003E008238DF80F3000BF9F
:1035B00082E0244BD3F8603103F00303032B7DD862
:1035C00001A252F823F000BFD9350000E135000018
:1035D000E9350000F135000005238DF80F300BE0D0
:1035E00004238DF80F3007E007238DF80F3003E038
:1035F0000A238DF80F3000BF60E0124BD3F864311E
:1036000003F00303032B5BD801A252F823F000BFA1
:10361000213600002936000031360000393600001E
:1036200005238DF80F300BE004238DF80F3007E0F1
:1036300007238DF80F3003E00A238DF80F3000BF09
:103640003EE000BF00400E40224BD3F8F03103F0C3
:103650000703052B36D801A252F823F07536000077
:103660007D360000853600008D360000953600005E
:103670009D3600000A238DF80F3013E004238DF8E7
:103680000F300FE00B238DF80F300BE005238DF882
:103690000F3007E002238DF80F3003E003238DF88D
:1036A0000F3000BF0EE000238DF80F3041F6277178
:1036B0000948FEF705FA06E000BF04E000BF02E09B
:1036C00000BF00E000BF9DF80F30184605B05DF860
:1036D00004FB00BF00400E40746B000000B58BB0CF
:1036E00001900B468DF803300323099303238DF8D3
:1036F00023300023069300230593019B112B1BD13C
:103700009DF80330042B03D1FDF794FE05900CE0E7
:103710009DF80330052B08D100F0FAFA0346BD4AA4
:10372000934202D900F0F4FA0590059B002B03D0D8
:103730000021059800F08AFE019B03F00F0304931B
:10374000049B013B0B2B00F2D38201A252F823F021
:10375000813700009F380000F5380000B5380000C0
:10376000D5380000A1390000F13C0000CD3900003F
:10377000733A0000F53A0000833B0000133C000060
:103780009DF80330023B0C2B52D801A252F823F0D3
:10379000C5370000D1370000DD370000EF370000EB
:1037A0003138000031380000313800003138000075
:1037B00019380000313800002538000001380000B9
:1037C0000D3800000423099300238DF8233035E0E1
:1037D0000323099301238DF823302FE0022309935B
:1037E00002238DF823308C48FEF748FA26E00123A7
:1037F000099303238DF823308748FEF73FFA1DE035
:103800000523099303238DF8233017E00723099339
:1038100007238DF8233011E00623099305238DF843
:1038200023300BE041F6E8717C48FEF749F965E288
:1038300041F6ED717948FEF743F95FE29DF82330D8
:10384000072B06D09DF8233001220121184600F0F5
:1038500025FBFEF71BFCFEF78BFD059B002B01D023
:10386000FEF7E8F96E4A099B5367FDF74BFD03909D
:10387000FDF76CFD03461846FEF700FAFEF7F0F977
:10388000034619460398FEF769FC059B002B03D1FC
:103890000121002000F0DAFDFEF780FD2EE2614BF1
:1038A00006939DF80330062B04D142F22C015B48AD
:1038B000FEF706F9069B002B01D0069B00E05A4B51
:1038C00006939DF80330062B04D142F2340153488D
:1038D000FEF7F6F8069B002B01D0069B00E0534B49
:1038E00006939DF80330062B04D142F23C014B486D
:1038F000FEF7E6F8069B002B01D0069B00E04C4B40
:1039000006939DF80330013B0B2B3FD801A252F8E0
:1039100023F000BF453900004B3900005B3900003F
:103920008D3900008D3900006B3900008D390000A1
:103930008D3900008D3900008D3900008D3900006F
:10394000873900000023079326E00122012100208F
:1039500000F0A4FA022307931EE0012201210120B6
:1039600000F09CFA0123079316E0FDF7EFFC0346F5
:103970001846FEF783F9012200212E48FEF7BAF817
:103980000323079308E00423079305E042F267014D
:103990002248FEF795F8B1E1069B079A1A60ADE15F
:1039A0009DF80330072B02D0092B04D007E01C4BF5
:1039B00000221A6709E01A4B01221A6705E042F259
:1039C000F1011648FEF77CF898E197E19DF8033085
:1039D000013B072B3BD801A252F823F0FD39000030
:1039E0004F3A00004F3A0000393A00004F3A0000C9
:1039F0004F3A0000033A0000493A000000230793C1
:103A00002BE001220121042000F048FA0123079352
:103A100023E000BF002D31010148E801746B000074
:103A200000400E4080400E408C400E4088400E40CA
:103A300084400E40B0400E4001220121022000F0DF
:103A40002DFA0223079308E00323079305E042F2CF
:103A50004F11AC48FEF734F850E1AB4BD3F85C3172
:103A600023F03002079B1B01A7491343C1F85C31C7
:103A700044E19DF80330013B072B29D801A252F8FD
:103A800023F000BFA53A0000D13A0000D13A00006F
:103A9000BB3A0000D13A0000D13A0000AB3A000036
:103AA000CB3A00000023079318E0012201210420F3
:103AB00000F0F4F90123079310E001220121022014
:103AC00000F0ECF90223079308E00323079305E0D5
:103AD00042F272118B48FDF7F3FF0FE18A4BD3F8E6
:103AE0005C3123F44012079B1B0587491343C1F83F
:103AF0005C3103E19DF80330043B062B30D801A272
:103B000052F823F0313B0000213B0000613B0000F4
:103B1000413B0000613B0000613B0000513B000065
:103B200001220121032000F0B9F9002307931DE0D1
:103B300001220121022000F0B1F90123079315E0D1
:103B400001220121042000F0A9F9022307930DE0CE
:103B500001220121052000F0A1F90323079305E0CC
:103B600042F299116748FDF7ABFFC7E0664BD3F807
:103B7000603123F003026449079B1343C1F86031AD
:103B8000BCE09DF80330043B062B31D801A252F86B
:103B900023F000BFC13B0000B13B0000F13B00003F
:103BA000D13B0000F13B0000F13B0000E13B000095
:103BB00001220121032000F071F9002307931DE089
:103BC00001220121022000F069F90123079315E089
:103BD00001220121042000F061F9022307930DE086
:103BE00001220121052000F059F90323079305E084
:103BF0004FF407514348FDF763FF7FE0424BD3F892
:103C0000643123F003024049079B1343C1F8643138
:103C100074E09DF80330023B092B58D801A252F8FA
:103C200023F000BFAF3C0000BF3C00005D3C000043
:103C30009F3C0000CF3C0000CF3C0000CF3C000088
:103C4000CF3C00004D3C00006D3C000001220121F2
:103C5000052000F023F9002307933EE00122012113
:103C6000022000F01BF90123079336E0FDF7E2FB89
:103C70000346264A934204D942F2DB112148FDF75C
:103C80001FFF214B5B6A204A43F008035362012265
:103C90000121022000F002F9022307931DE0012216
:103CA0000121032000F0FAF80323079315E0012215
:103CB0000121002000F0F2F8042307930DE0012217
:103CC0000121012000F0EAF80523079305E042F204
:103CD000FA110C48FDF7F4FE10E00B4BD3F8F0316D
:103CE00023F007020849079B1343C1F8F03105E0B0
:103CF00042F226210348FDF7E3FE00BF0BB05DF85A
:103D000004FB00BF746B000000400E4040787D0152
:103D1000014B1B68184670471010002000B585B095
:103D200001901120FFF7FAFA0346042B04D142F266
:103D30000F513348FDF7C4FE01220021022000F09C
:103D4000ADF800230393019BDB7A022B09D0022BF1
:103D50000DDC002B02D0012B06D008E000230393DA
:103D60000BE00323039308E00123039305E042F2F1
:103D700023512348FDF7A4FE00BF224B5B6A23F0CA
:103D800003022049039B13434B6200230393FDF777
:103D900051FB03461C4A934203D8039B43F008039C
:103DA0000393184B5B6A23F008021649039B1343E5
:103DB0004B62019B1B88DB02019A92881A43114BCC
:103DC000DA62104B1B6B1B0D1B05019A5288D20245
:103DD0001343019AD28811460A4A0B431363019B8D
:103DE0001B7A1A03019B5B7A1B011343019A927A97
:103DF0001A43044B5A6300BF05B05DF804FB00BFD3
:103E0000746B000000400E4040787D0100B585B025
:103E100001901120FFF782FA0346022B04D142F2EF
:103E2000CD511448FDF74CFE134B9A6B134B1340C6
:103E3000019A12781A43019B5B78DB021A43019BBB
:103E40009B781B061A43019BDB781B0213430393E9
:103E5000094B9B6B039A9A4207D001220021002054
:103E600000F01CF8044A039B936300BF05B05DF8A3
:103E700004FB00BF746B000000400E4080E4FFF8BC
:103E800082B00346ADF80630034ABDF80630138011
:103E900000BF02B0704700BF1C10002000B589B001
:103EA00003468DF807300B468DF8063013468DF823
:103EB00005309DF80730052B48D801A252F823F0B1
:103EC000213F00000F3F0000EB3E0000D93E000004
:103ED000FD3E0000373F00000123059302230493B9
:103EE000012307930023069336E004230593082358
:103EF000049303230793022306932DE010230593D5
:103F000020230493052307930423069324E04023EE
:103F100005938023049307230793062306931BE04E
:103F20004FF4807305934FF40073049309230793B0
:103F30000823069310E04FF4806305934FF4006369
:103F400004930B2307930A23069305E042F274615E
:103F50004648FDF7B5FD85E09DF80630002B64D09E
:103F600000238DF80F309DF80730022B1BD1FEF790
:103F70001FF90346012B16D13D4BDB6B03F4806325
:103F8000002B04D142F283613848FDF799FD0123EB
:103F90008DF80F30374B5B6A03F00303032B02D11C
:103FA0000220FEF70FF9334A059B136600BF0699FE
:103FB0003148FDF7BFFD0346002BF8D09DF80530D2
:103FC000002B4FD000BF07992B48FDF7B3FD0346E8
:103FD000002BF8D09DF80730022B43D19DF80F300D
:103FE000002B3FD0234B5B6A03F00303032B03D06A
:103FF0000021022000F026F9022000F03FF8029094
:10400000012200210220FFF749FF0299022000F05F
:1040100077F8184A059B136600BF07991648FDF705
:1040200089FD0346002BF8D01CE0124A049B13665E
:1040300000BF104BD3F890300121069A01FA02F22A
:104040001340002BF5D19DF80530002B0AD000BF9E
:10405000084BD3F890300121079A01FA02F213407D
:10406000002BF5D109B05DF804FB00BF746B0000B4
:1040700000300E4000400E4090400E4000B585B02C
:1040800003468DF807309DF80730013B042B25D8F7
:1040900001A252F823F000BFAD400000DD40000057
:1040A000B9400000D1400000C5400000124B1B6A1F
:1040B000C3F30803039319E00F4B1B6903F07F035D
:1040C000039313E00C4B9B6803F07F0303930DE015
:1040D000094B9B6903F07F03039307E000230393DD
:1040E0004FF41C510548FDF7EBFC00BF039B18463D
:1040F00005B05DF804FB00BF00400E40746B00008B
:1041000000B583B0034600918DF807309DF8073065
:10411000013B042B00F2858001A252F823F000BF7E
:10412000354100002342000075410000E9410000D4
:10413000AF410000009BB3F5007F04D342F225712C
:104140003D48FDF7BDFC009BC3F30803009300BF8F
:104150001A213A48FDF7EEFC0346002BF8D1384B04
:104160001B6A23F4FF7323F001033549009A1343BC
:104170000B625CE0009B7F2B04D942F232712E4827
:10418000FDF79EFC009B03F07F03009300BF182106
:104190002A48FDF7CFFC0346002BF8D1284B1B69BA
:1041A00023F07F022649009B13430B613FE0009BF5
:1041B0007F2B04D94FF41D511F48FDF781FC009B54
:1041C00003F07F03009300BF1E211C48FDF7B2FCE3
:1041D0000346002BF8D11A4B9B6823F07F02184945
:1041E000009B13438B6022E0009B7F2B04D942F29B
:1041F0004D711148FDF764FC009B03F07F030093B1
:1042000000BF19210D48FDF795FC0346002BF8D19E
:104210000B4B9B6923F07F020949009B13438B6181
:1042200005E042F277710448FDF74AFC00BF00BF89
:1042300003B05DF804FB00BF746B000040410E400A
:1042400000400E4000B585B003460A468DF80730A1
:1042500013468DF806309DF80730022B04D042F249
:104260008F711548FDF72CFCFDF7A2FF0346012BCB
:1042700003D14FF4800303930FE09DF80630002B29
:1042800003D14FF48003039307E00C4B039342F2F6
:10429000AA710948FDF714FC00BF00BF084BD3F812
:1042A0009020039B1340039A9A42F7D101231846AA
:1042B00005B05DF804FB00BF746B0000FF3F473A98
:1042C00000400E4082B0EFF310830093009B0193F7
:1042D00072B600BF019B184602B0704782B00190D1
:1042E000019B002B01D162B600BF00BF02B0704736
:1042F00084B0EFF311830193019B03936023029336
:10430000029B83F3118800BF039B184604B07047DB
:1043100084B00190019B0393039B83F3118800BF3A
:1043200000BF04B07047000000B587B00390029151
:104330000192029B1F2B03D991210A48FDF7C0FB74
:10434000039B03F1424303F58013DA00029B1344FD
:104350009B000593059B019A1A6000BF07B05DF8AA
:1043600004FB00BF106C000084B001900091019B21
:1043700003F1424303F58013DA00009B13449B00D2
:104380000393039B1B68184604B07047054B1B68DA
:1043900003F04003002B01D1012300E00023184665
:1043A000704700BF3C300E4008B5FFF7EFFF0346F3
:1043B00083F00103DBB2002B08D100BF12210448B7
:1043C000FFF7D2FF0346002BF8D100E000BF08BD85
:1043D00004300E4008B5FFF7E7FF044B5B681B0C89
:1043E00003F00303DBB2184608BD00BF00300E40E7
:1043F00082B00190024A019BD36200BF02B07047B5
:1044000000300E40014B5B6A1846704700300E408A
:10441000024B00225A6300BF704700BF00300E40BD
:10442000024B4AF6E8525A6300BF704700300E4014
:1044300082B003468DF807309DF80730C3F10203C0
:10444000102202FA03F3184602B0704700B585B097
:1044500001900B468DF80330FFF798FF034683F079
:104460000103DBB2002B2AD1019B002B0FD1164B8D
:10447000D3F800311B0A03F01F0301330293FCF74A
:1044800065FF0246029B02FB03F3039301E0019BDD
:1044900003930E4B1B78002B0AD0039B0C4A9342CC
:1044A00006D89DF803301946022000F013F807E003
:1044B0009DF803301946002000F00CF800E000BF22
:1044C00005B05DF804FB00BF00400E40E81200207C
:1044D000002D310110B586B003460A468DF807302D
:1044E00013468DF80630FFF751FF034683F00103B2
:1044F000DBB2002B3FD1FFF76DFF03461A469DF854
:104500000730934239D01E4BD3F800311B0A03F019
:104510001F0301330593FCF719FF0490049B059AD0
:1045200002FB03F303939DF80730022B0CD1039B8E
:10453000144A934204D940F231611348FDF7C0FA9E
:1045400002210498FDF70AFE104C9DF8073018462A
:10455000FFF76EFF034623619DF80630002B01D064
:10456000FFF722FF9DF80730002B07D100210498A8
:10457000FDF7F4FD02E000BF00E000BF06B010BD93
:1045800000400E40002D3101746C000000300E40E0
:1045900084B001901D4B9B690393039B23F03F0361
:1045A0000393019B1B78002B01D0042200E0002222
:1045B000019B5B78002B01D0022300E00023134312
:1045C000019A9278002A01D0082200E000221343C9
:1045D000019AD278012A01D1012200E0002213437E
:1045E000019A12791343039A13430393074A039BD7
:1045F0009361064B1B6823F44032019B5B791B04DB
:10460000024913430B6000BF04B0704700300E40F6
:10461000012318467047000000B583B00C4BDB6ED9
:104620000B4A43F08073D36600210A48FFF79CFED3
:104630000190019B002B03D0042000F065FD02E0F7
:10464000002000F061FD00BF03B05DF804FB00BF77
:1046500000300E404C300E4000B58BB00123099362
:10466000099B1B050893424BDB6C1B0A03F00F03ED
:104670000793404B1B881A463E4B1B8828335B0828
:10468000134403F12801079B5A1C13469B00134453
:10469000B1FBF3F3013B0693069B059307230493B9
:1046A000049A059B934228BF13460693069B1B065C
:1046B0000693069B23F0E063002B04D040F68901AB
:1046C0002D48FDF7FDF9089B23F4E003002B04D0EF
:1046D00040F68A012848FDF7F3F9254BDB6C23F0FF
:1046E000EE620699089B0B4321491343CB64234B8D
:1046F000B3F90030002B36DB204BB3F90030ADF8B6
:104700000E30BDF80E20BDF80E3028335B08134480
:1047100003F12802079B01335900079B01335B0813
:104720000B44B2FBF3F30293029B01930723009324
:10473000009A019B934228BF13460293029B1B01E0
:104740000293029B23F07003002B04D040F6A201D9
:104750000948FDF7B5F9064B1B6D23F070020449BB
:10476000029B13430B6500BF0BB05DF804FB00BF59
:1047700000300E40E0120020746C0000E4120020B3
:1047800082B001900B46ADF80230019B9AB2044B07
:104790001A80044ABDF80230138000BF02B070478F
:1047A000E0120020E412002000B583B003468DF82B
:1047B00007309DF80730002B02D0012B04D007E012
:1047C000084B094A9A6509E0064B084A9A6505E0D4
:1047D00040F6CE010648FDF773F900BF00BF03B0F5
:1047E0005DF804FB00300E4077402057372110B7AA
:1047F000746C000000B585B003468DF807300B4699
:104800008DF8063013468DF80530344BD3F88031DF
:1048100003939DF80630032B1CD801A252F823F015
:104820003148000039480000434800004D4800006E
:10483000039BDBB2039314E0039B1B0ADBB20393DD
:104840000FE0039B1B0CDBB203930AE0039B1B0EE0
:10485000039306E040F612112148FDF731F90023D9
:1048600038E09DF80530002B16D1039B1B03039302
:10487000039B23F47043002B06D040F61D1118480B
:10488000FDF71EF9002325E0164BDB6E23F4704282
:104890001449039B1343CB669DF80530012B18D1B7
:1048A000039B1B030393039B23F47043002B06D04D
:1048B00040F629110A48FDF703F900230AE0094BE5
:1048C000D3F8EC3023F470420649039B1343C1F83C
:1048D000EC300123184605B05DF804FBB081E00F11
:1048E000746C000000300E4000B589B00390029156
:1048F00011461A460B468DF8073013468DF80630E0
:1049000000230793002306939DF806301B029DF8B1
:104910000720002A01D0012200E000221343059362
:10492000059B40F2013293425CD0059B40F201327C
:10493000934200F29380059BB3F5407F00F08280A4
:10494000059BB3F5407F00F28980059B40F2012270
:1049500093423BD0059B40F2012293427ED8059BB7
:10496000B3F5007F62D0059BB3F5007F76D8059B39
:1049700040F2011293421DD0059BB3F5817F6DD2A9
:10498000059BB3F5807F45D0059BB3F5807F65D847
:10499000059B002B32D0059B012B5FD1374BD3F801
:1049A00074310793079B1B0ADBB20693079BDBB2AC
:1049B000079359E0314BD3F874310793079B1B0ED3
:1049C0000693079B1B0CDBB207934DE02B4BD3F8F0
:1049D00078310793079B1B0ADBB20693079BDBB278
:1049E000079341E0254BD3F878310793079B1B0EC3
:1049F0000693079B1B0CDBB2079335E01F4BD3F8E4
:104A00006C310793079B1B0ADBB20693079BDBB253
:104A1000079329E0194BD3F86C310793079B1B0EC2
:104A20000693079B1B0CDBB207931DE0134BD3F8D7
:104A300070310793079B1B0ADBB20693079BDBB21F
:104A4000079311E00D4BD3F870310793079B1B0EB2
:104A50000693079B1B0CDBB2079305E040F68E1113
:104A60000748FDF72DF800BF039B079A1A60029BC9
:104A7000069A1A6000BF09B05DF804FBB081E00F30
:104A8000746C000000B585B003468DF80730424BCA
:104A90005B6B012B0CBF012300238DF80F30FFF758
:104AA000BFFC00BF3C4B9B6F03F00103002BF9D10F
:104AB000394B1B6C03F003030293029B002B04D0C1
:104AC00001220D213548FFF72FFC029BDBB29DF838
:104AD00007209A4209D19DF80730002B58D10022B7
:104AE0000D212E48FFF720FC52E0029B032B02D041
:104AF000029B002B22D19DF80730022B03D09DF89A
:104B00000730012B1AD14FF40020FFF771FC00BFD2
:104B1000214B9B6F03F00103002BF9D11E4B1B6C43
:104B200023F003031C4A43F00103136400BFFFF7A3
:104B300069FC034603F40023002BF8D000BF164B9A
:104B40009B6F03F00103002BF9D1134B1B6C23F077
:104B500003029DF80730104913430B6400BF0E4B4E
:104B60009B6F03F00103002BF9D19DF80730002B58
:104B700014BF01230023DBB21A460D210748FFF7BB
:104B8000D3FB9DF80F30002B03D0FFF741FC00E072
:104B900000BF05B05DF804FB00300E4054300E40FD
:104BA00000B585B00190FFF733FD019B1B89C82B31
:104BB00004D940F655216048FCF782FF019B9A8892
:104BC000019B1B899A4204D940F656215A48FCF7AA
:104BD00077FF019BB3F90C30C82B04DD40F6572159
:104BE0005548FCF76DFF019B5B78012B09D1019BB8
:104BF0009B88C82B12D940F65B214F48FCF760FF19
:104C00000CE0019B5B78022B08D1019B9B880A2B4F
:104C100004D94FF426614848FCF752FF019BDB881A
:104C200042F21072934204D940F668214248FCF7E0
:104C300047FF019BDB884A2B02D80023039315E032
:104C4000019BDB88B3F5FA7F03D24FF080530393C7
:104C50000CE0019BDB8840F6C312934203D84FF06F
:104C60000053039302E04FF040530393334BDB6C4C
:104C700023F0405323F00103019AB2F90C20002ADB
:104C800001DB012100E00021039A0A432B49134371
:104C9000CB642A4BD3F8EC30284A43F44073C2F873
:104CA000EC30019B9A88264B1A80FFF7B5FC019BDC
:104CB0001B891A46019BB3F90C3019461046FFF7C1
:104CC0005FFD019B9B88184600F0ACF9019B9B7B24
:104CD0001846FFF769FD019B5B88012201211846F8
:104CE00000F032F8034683F00103DBB2002B06D05C
:104CF00040F69F211048FCF7E3FE002317E00F4B1E
:104D0000DB6B0E4A43F48063D363019B5B781846E8
:104D1000FFF7B8FE019B9B7A202B01D1012300E015
:104D200000231A4605210748FFF7FEFA012318461B
:104D300005B05DF804FB00BF746C000000300E404D
:104D4000E21200203C300E4010B594B001900B46AA
:104D50008DF8033013468DF802300023139300239F
:104D6000119309AB00221A605A609A6006AB0022C8
:104D70001A605A609A6003AB00221A605A609A6007
:104D8000A44B1B88ADF8083000238DF80A30019B36
:104D9000B3F5E16F06D3019B40F6B832934201D8D8
:104DA000012300E000238DF843309DF8433003F0E9
:104DB00001038DF843309DF8433083F00103DBB2EB
:104DC000002B06D040F6EE219348FCF779FE002335
:104DD0001DE1019BB3F5E16F8CBF012300238DF82A
:104DE00042309DF84230002B0AD04FF4E163139318
:104DF00040F6B8331193119A139BD31A129309E01A
:104E00004FF4966313934FF4E1631193119A139B3C
:104E1000D31A12939DF84230002B0BD07F4BD3F85E
:104E200068310893089B1B0E0593089B1B0CDBB293
:104E300008930AE0794BD3F868310893089B1B0A62
:104E4000DBB20593089BDBB20893754BDB6C1B0F41
:104E5000DBB203F00303DBB28DF808309DF80830B5
:104E60009DF8422003A906A8FFF73EFD6C4BD3F83E
:104E7000EC301B0ADBB203F00303DBB28DF8093020
:104E80009DF809409DF8422003AB191D06AB181D83
:104E90002346FFF729FD019A139BD31A0599089A17
:104EA0008A1A03FB02F2129BB2FBF3F30B930B9AE9
:104EB000089B13440B93019A139BD31A0399069AE8
:104EC0008A1A03FB02F2129BB2FBF3F30993099ACD
:104ED000069B13440993019A139BD31A0499079ACA
:104EE0008A1A03FB02F2129BB2FBF3F30A930A9AAB
:104EF000079B13440A930B9A059B9A4213D80B9A6B
:104F0000089B9A420FD30A9A049B9A420BD80A9A9A
:104F1000079B9A4207D3099A039B9A4203D8099A9E
:104F2000069B9A4206D240F63C313B48FCF7C8FD4E
:104F300000236CE09DF80230002B12D0384BDB6D63
:104F400023F4FE4323F002030B9A120213439DF84D
:104F50004220002A01D0022200E0002230491343FF
:104F6000CB659DF80330002B50D09DF808109DF8BC
:104F7000423000221846FFF73DFC034683F0010350
:104F8000DBB2002B06D040F64B312348FCF798FDEE
:104F900000233CE09DF809109DF84230012218469C
:104FA000FFF728FC034683F00103DBB2002B06D099
:104FB00040F653311848FCF783FD002327E0099B96
:104FC0000F930A9B0E930E9A0F9B934238BF134682
:104FD0000993099B0D93E7230C930C9A0D9B934225
:104FE00028BF134609930E4B5B6E23F4FF7323F027
:104FF0000103099A520013439DF84220002A01D070
:10500000012200E00022064913434B6601231846A3
:1050100014B010BDD86C0000746C0000B081E00FBB
:1050200000300E4000B585B0019000230393344B4F
:105030001B6F03F007030293314BDB6C03F001039A
:10504000002B14D0029B012B11D9019B132B02D8EA
:10505000042303933DE0019B132B05D9019B272BD0
:1050600002D80823039334E01023039331E0244B48
:10507000DB6C03F00103002B14D1029B012B11D830
:10508000019B092B02D80423039322E0019B092BE7
:1050900005D9019B132B02D80823039319E0102391
:1050A000039316E0164BDB6C03F00103002B0BD0CF
:1050B000029B012B08D8019B272B02D808230393BE
:1050C00007E01023039304E040F691310D48FCF70C
:1050D000F7FC039B013B0393039B1A02039B1B03F7
:1050E00013430393064BDB6C23F47F420449039B79
:1050F0001343CB64FFF7B0FA00BF05B05DF804FBC3
:1051000000300E40746C000000B585B003468DF889
:10511000073000211248FFF727F90390039B002B6B
:1051200003D19DF80730012B07D9039B002B04D135
:1051300040F6AF310B48FCF7C3FC0B4B1B6F23F061
:1051400007029DF80730084913430B67074B1B887C
:105150001846FFF767FF00BF05B05DF804FB00BF0E
:105160004C300E40746C000000300E40E212002003
:1051700000B587B0039002910192029B1F2B03D9C7
:1051800091210A48FCF79CFC039B03F1424303F581
:105190008013DA00029B13449B000593059B019A40
:1051A0001A6000BF07B05DF804FB00BFDC6C0000B4
:1051B00084B001900091019B03F1C0630393039BB2
:1051C000009A1A6000BF04B0704784B0019000914B
:1051D000019B03F180630393039B009A1A6000BF55
:1051E00004B0704700B587B0039002910192FFF7B9
:1051F00069F80590039B1A68029BDB431A400199EA
:10520000029B0B401A43039B1A600598FFF766F850
:1052100000BF07B05DF804FB82B00190034A019B18
:10522000C2F8243400BF02B0704700BF00800840BD
:1052300000B583B0034600918DF807309DF8073024
:10524000002B39D09DF80730012B32D09DF8073064
:10525000022B2BD09DF80730032B24D09DF807306C
:10526000042B1DD09DF80730052B16D09DF8073074
:10527000062B0FD09DF80730072B08D09DF807307C
:10528000082B02D14FF6FF7318E0002316E04FF60B
:10529000FF7313E04FF6FF7310E04FF6FF730DE05E
:1052A0004FF6FF730AE04FF6FF7307E04FF6FF7308
:1052B00004E04FF6FF7301E04FF6FF73009AD3400E
:1052C00003F00103002B04D14FF479710C48FCF773
:1052D000F7FB9DF8072013465B0013441B010C33BA
:1052E00003F1804303F508230121009A01FA02F239
:1052F00011461846FFF769FF00BF03B05DF804FBD5
:10530000406D000000B583B0034600918DF8073072
:105310009DF80730002B39D09DF80730012B32D093
:105320009DF80730022B2BD09DF80730032B24D09B
:105330009DF80730042B1DD09DF80730052B16D0A3
:105340009DF80730062B0FD09DF80730072B08D0AB
:105350009DF80730082B02D14FF6FF7318E00023A9
:1053600016E04FF6FF7313E04FF6FF7310E04FF6B1
:10537000FF730DE04FF6FF730AE04FF6FF7307E08F
:105380004FF6FF7304E04FF6FF7301E04FF6FF7333
:10539000009AD34003F00103002B04D140F21341E3
:1053A0000C48FCF78DFB9DF8072013465B00134467
:1053B0001B010C3303F1804303F508230121009AFC
:1053C00001FA02F211461846FFF7F2FE00BF03B0E1
:1053D0005DF804FB406D000000B587B002910192BA
:1053E0001A4603468DF80F3013468DF80E30002311
:1053F00005939DF80F30002B39D09DF80F30012B0D
:1054000032D09DF80F30022B2BD09DF80F30032B9C
:1054100024D09DF80F30042B1DD09DF80F30052BA4
:1054200016D09DF80F30062B0FD09DF80F30072BAC
:1054300008D09DF80F30082B02D14FF6FF7318E00B
:10544000002316E04FF6FF7313E04FF6FF7310E0F2
:105450004FF6FF730DE04FF6FF730AE04FF6FF7350
:1054600007E04FF6FF7304E04FF6FF7301E04FF6DD
:10547000FF73029AD34003F00103002B03D1BF2135
:105480003B48FCF71DFB019A029B534023F00303AA
:10549000002B03D0C1213648FCF712FB019B072BE0
:1054A0000FD8019B9B000F2202FA03F19DF80F20F9
:1054B000019B9B0002FA03F31A462E48FFF792FE67
:1054C00011E0019B083B0593059B9B000F2202FA0C
:1054D00003F19DF80F20059B9B0002FA03F31A4687
:1054E0002548FFF77FFE019B072B10D8019B9B00EF
:1054F000032202FA03F1029B03F00302019B9B00CB
:1055000002FA03F31A461D48FFF76CFE0FE0059BF5
:105510009B00032202FA03F1029B03F00302059BA6
:105520009B0002FA03F31A461548FFF75BFE9DF84D
:105530000E301A4601991348FFF71AFE9DF82030E5
:105540001A4601991048FFF713FE0122019B02FA47
:1055500003F31846FFF760FE9DF824301A460199C0
:105560000A48FFF705FE00BF07B05DF804FB00BF67
:10557000A46D0000008408400484084008840840AA
:105580000C84084010840840148408402884084093
:1055900000B585B00291019303468DF80F30134694
:1055A0008DF80E309DF80F30002B39D09DF80F305C
:1055B000012B32D09DF80F30022B2BD09DF80F30ED
:1055C000032B24D09DF80F30042B1DD09DF80F30F5
:1055D000052B16D09DF80F30062B0FD09DF80F30FD
:1055E000072B08D09DF80F30082B02D14FF6FF7320
:1055F00018E0002316E04FF6FF7313E04FF6FF7339
:1056000010E04FF6FF730DE04FF6FF730AE04FF620
:10561000FF7307E04FF6FF7304E04FF6FF7301E0FE
:105620004FF6FF73029AD34003F00103002B04D11D
:1056300040F21D113D48FCF743FA9DF80E30002B57
:105640000FD0019B002B06D09DF80F300299184611
:10565000FFF758FE05E09DF80F3002991846FFF756
:10566000E7FD029B072B23D831499DF80F201346F5
:105670005B0013441B010B4404331A68029B9B001C
:105680000F2101FA03F3DB4313409DF80E10029A39
:10569000920001FA02F2114625489DF80F201943A5
:1056A00013465B0013441B0103440433196024E0D8
:1056B0001F499DF80F2013465B0013441B010B4448
:1056C00008331A68029B083B9B000F2101FA03F381
:1056D000DB4313409DF80E10029A083A920001FA3B
:1056E00002F2114612489DF80F20194313465B0041
:1056F00013441B010344083319609DF80E30002B3E
:105700000FD1019B002B06D09DF80F30029918464F
:10571000FFF7F8FD05E09DF80F3002991846FFF7F6
:1057200087FD00BF05B05DF804FB00BFA46D00005D
:105730000080084082B003468DF807309DF907309D
:10574000002B0CDB9DF8073003F01F0205499DF983
:1057500007305B09012000FA02F241F8232000BF64
:1057600002B0704700E100E082B003468DF80730D8
:105770009DF90730002B0DDB9DF8073003F01F0269
:1057800006499DF907305B09012000FA02F26033F7
:1057900041F8232000BF02B0704700BF00E100E0E5
:1057A00082B0034600918DF807309DF90730002B39
:1057B0000ADB009BDAB20C499DF907305201D2B2E4
:1057C0000B4483F800230BE0009BDAB207499DF8F5
:1057D000073003F00F03043B5201D2B20B441A7698
:1057E00000BF02B0704700BF00E100E000ED00E044
:1057F00084B001900091019B03F180630393039BAC
:10580000009A1A6000BF04B07047000000B585B070
:105810000190019B002B03D18D213148FCF750F9F9
:10582000019B1B781B0623F0F853002B03D08E211D
:105830002B48FCF745F9019B5B781B0223F47F435F
:10584000002B03D092212648FCF73AF9019B9B7864
:1058500023F0FF03002B03D094212148FCF730F9FB
:10586000019BDB78072B03D99F211D48FCF728F902
:1058700001214FF4EA40FCF701FE019B1B781B0657
:105880000393019B5B781B02019A927813431A469B
:10589000039B13430393134A039B1360114B002292
:1058A0001A62104B0022DA620E4B00225A630D4B33
:1058B0004FF00042DA660B4B4FF0FF329A6602203F
:1058C000FFF752FF019BDB7819460220FFF768FFC4
:1058D0000220FFF72FFF00BF05B05DF804FB00BFFB
:1058E0006C6E00000020004000B589B0039002916A
:1058F0000192039BDBB21A46012393400693039B5C
:10590000172B03DDE6218448FCF7DAF8029B002B15
:1059100003D1E7218048FCF7D3F8029B1B6823F4EE
:105920007C1323F00F03002B03D0EC217A48FCF703
:10593000C7F8029B1B791B0223F47F43002B03D083
:10594000F9217548FCF7BCF8029B5B791B0223F434
:105950007F43002B03D0FB216F48FCF7B1F8029B7B
:105960009B7923F0FF03002B03D0FD216A48FCF74D
:10597000A7F8029BDB7923F0FF03002B03D0FF2164
:105980006548FCF79DF8029B9B7A1B0423F4403387
:10599000002B04D040F203115F48FCF791F8029B02
:1059A000DB7A1B0523F48013002B04D040F2051191
:1059B0005948FCF785F8029B1B7B5B0523F4001319
:1059C000002B04D040F207115348FCF779F8029BF2
:1059D0005B7B23F0FF03002B04D040F209114E48FB
:1059E000FCF76EF84D48029B1968039A13465B005A
:1059F00013441B01034480331960029B5B7B4749BE
:105A00001846039A13465B0013441B010B4488336A
:105A10001860029B9B7A1A04029BDB7A1B051A43CF
:105A2000029B1B7B5B053D4842EA0301039A134638
:105A30005B0013441B01034484331960019B374806
:105A400023F00301039A13465B0013441B01034434
:105A500098331960314A069B9366FEF749FC05901E
:105A60002E4BDA6E2D49069B1343CB66029B1B7AA5
:105A7000002B05D0294B5A6B2849069B13434B63D7
:105A8000029B5B7A002B05D0244BDA6A2349069BE4
:105A90001343CB62214B1B680793029B1B79002B9E
:105AA00008D0029B1B79DB431B0263F47F43079AF8
:105AB00013400793029B5B79002B06D0029B5B7916
:105AC0001B021A46079B13430793029B9B79002BEB
:105AD00007D0029B9B79DB4363F0FF03079A1340D7
